:020000040000FA
:100000000C94F5000C9426010C9426010C94260106
:100010000C9426010C9426010C9426010C942601C4
:100020000C9426010C9426010C9426010C942601B4
:100030000C9426010C9426010C9426010C942601A4
:100040000C9426010C9426010C9426010C94260194
:100050000C9426010C9426010C9426010C94E009C2
:100060000C9426010C94540A0C942A0A0C94260130
:100070000C9426010C9426010C9426010C94260164
:100080000C9426010C9426010C9426010C94260154
:100090000C9426010C9426010C9426010C94260144
:1000A0000C9426010C9426010C9426010C94260134
:1000B0000C9426010C9426010C9426010C94260124
:1000C0000C9426010C9426010C9426010C94260114
:1000D0000C9426010C9426010C9426010C94260104
:1000E0000C94260105A84CCDB2D44EB93836A902DD
:1000F0000C50B9918688083CA6AAAA2ABE00000026
:10010000803F0C947A010C94AB010C94200C0C945D
:1001100030020C944D010C9489010C949D010C94B7
:100120008A0A0C94E30100002200250028002B001D
:100130002E003100340002010000050108010B010E
:1001400000002100240027002A002D003000330089
:1001500001010000040107010A0105050505070565
:1001600008080808020202020A0A08080404040433
:10017000010101010101010103030303030303035F
:10018000040707070C0C0C0C0C0C0C0C02020202EE
:1001900006060606060606060B0B0B0B0B0B0B0BD7
:1001A0000102102020080810204010204080020189
:1001B000020108040201010204081020408080406E
:1001C000201008040201800402018040201008046D
:1001D000020108040201010204081020408001020B
:1001E0000408102040808A0A200C11241FBECFEF83
:1001F000D1E2DEBFCDBF00E00CBF12E0A0E0B2E074
:10020000E0E4F1E200E00BBF02C007900D92AA34D7
:10021000B107D9F727E0AAE4B2E001C01D92AF30E0
:10022000B207E1F710E0C4EFD0E000E006C021978C
:100230000109802FFE010E94610FC33FD10780E0BA
:100240000807A9F70E94D30A0C948E100C940000A2
:100250003FB7F8948091590290915A02A0915B02A5
:10026000B0915C0226B5A89B05C02F3F19F00196FE
:10027000A11DB11D3FBFBA2FA92F982F8827BC0100
:10028000CD01620F711D811D911D42E0660F771F28
:10029000881F991F4A95D1F70895AF92BF92CF92C8
:1002A000DF92EF92FF920F931F93CF93DF936C0136
:1002B0007B018B01040F151FEB015E01AE18BF0817
:1002C000C017D10759F06991D601ED91FC910190C9
:1002D000F081E02DC6011995892B79F7C501DF91D1
:1002E000CF911F910F91FF90EF90DF90CF90BF9033
:1002F000AF900895FC01538D448D252F30E0842F5D
:1003000090E0821B930B541710F0CF96089501973D
:100310000895FC01918D828D981761F0A28DAE0F2A
:10032000BF2FB11D5D968C91928D9F5F9F73928FB1
:1003300090E008958FEF9FEF0895FC01918D828DDD
:10034000981731F0828DE80FF11D858D90E00895AA
:100350008FEF9FEF0895FC01918D228D892F90E002
:10036000805C9F4F821B91098F73992708958DE5BB
:1003700092E00E94AB0121E0892B09F420E0822F5A
:100380000895FC01A48DA80FB92FB11DA35ABF4F2A
:100390002C91848D90E001968F739927848FA68984
:1003A000B7892C93A089B1898C91837080648C93D8
:1003B000938D848D981306C00288F389E02D808187
:1003C0008F7D80830895EF92FF920F931F93CF93B9
:1003D000DF93EC0181E0888F9B8D8C8D98131AC080
:1003E000E889F989808185FF15C09FB7F894EE8967
:1003F000FF896083E889F9898081837080648083C4
:100400009FBF81E090E0DF91CF911F910F91FF900E
:10041000EF900895F62E0B8D10E00F5F1F4F0F73B6
:100420001127E02E8C8D8E110CC00FB607FCFACF71
:10043000E889F989808185FFF5CFCE010E94C1014D
:10044000F1CFEB8DEC0FFD2FF11DE35AFF4FF08242
:100450009FB7F8940B8FEA89FB8980818062CFCFA8
:10046000CF93DF93EC01888D8823B9F0AA89BB89EB
:10047000E889F9898C9185FD03C0808186FD0DC0D6
:100480000FB607FCF7CF8C9185FFF2CF808185FFF7
:10049000EDCFCE010E94C101E9CFDF91CF91089548
:1004A00080E090E0892B29F00E94B70181110E9421
:1004B000000080E090E0892B49F080E090E0892BFB
:1004C00029F00E94000081110E94000080E090E06D
:1004D000892B49F080E090E0892B29F00E940000F0
:1004E00081110E94000080E090E0892B49F080E0BB
:1004F00090E0892B29F00E94000081110C940000EB
:100500000895FC0101900020E9F73197AF01481BE5
:10051000590BBC018DE592E00C944D018F929F9296
:10052000AF92BF920F931F93CF93DF93CDB7DEB7F8
:10053000A1970FB6F894DEBF0FBECDBF19A242300F
:1005400008F44AE08E010F5D1F4F842E912CB12CD0
:10055000A12CA50194010E943F0FE62FB901CA0109
:10056000EA30F4F4E05DD801EE938D01232B242BC7
:10057000252B79F790E080E0109719F0CD010E94CB
:100580008102A1960FB6F894DEBF0FBECDBFDF91FA
:10059000CF911F910F91BF90AF909F908F90089532
:1005A000E95CE1CFCF92DF92EF92FF92CF93DF939E
:1005B0006B017C016DE28DE592E00E94E301EC01AC
:1005C00066277727CB016C197D098E099F094AE0C0
:1005D0000E948E028C0F9D1FDF91CF91FF90EF90B4
:1005E000DF90CF9008952F923F924F925F926F923B
:1005F0007F928F929F92AF92BF92CF92DF92EF92B3
:10060000FF920F931F93CF93DF93CDB7DEB7C653FF
:10061000D8400FB6F894DEBF0FBECDBFFE013196B5
:1006200080E098E0DF019C011D9221503040E1F70D
:10063000C35FD74FF983E883CD50D84066E072E0BE
:10064000C95ED74F79836883C751D840C95DD74FFA
:10065000F983E883C752D8408AEF94E0C75DD74F4B
:1006600099838883C952D8402AEFE22E22E0F22EE5
:100670008C010E94280160934A0270934B02809380
:100680004C0290934D02C95ED74FA881B981C751E2
:10069000D8408C91863308F0865320917B00982FA8
:1006A0009870277F922B90937B0087708064809353
:1006B0007C0080917A00806480937A0080917A0037
:1006C00086FDFCCF6091780070917900072E000CB8
:1006D000880B990B0E94430DF801619371938193EC
:1006E00091938F01D7011D921D921D921D927D0144
:1006F0000E942801AB01BC0120914E0230914F02B3
:1007000080914A0290914B02A0914C02B0914D020F
:10071000820F931FA11DB11D481759076A077B0758
:1007200038F3B6E00A3F1B0709F0A3CF0091FD069E
:100730001091FE06E091FF06F0910007CB5FD74FC6
:10074000F983E883C550D840209107073091080706
:10075000CF5FD74F39832883C150D840F695E795AE
:10076000CD5FD74FF983E883C350D840CB5FD74FD5
:1007700028803980C550D840220C331C220C331CF1
:100780000115110509F4F4C08091FA06882309F4D3
:1007900048C08091090790910A07019709F041C06C
:1007A0008091FB0681113DC06901220E331EF12CA0
:1007B000E12CCD5FD74F68817981C350D840E616D0
:1007C000F70609F4B8C0D6012D913D914D915D9188
:1007D0006D015D01B4E0AB1AB108F801608171816F
:1007E000828193810E94370ED5016D937D938D9305
:1007F0009C931397F80121913191419151918F016F
:10080000D1019E918E917E916E911D010E94370EB5
:10081000F1016083718382839383FFEFEF1AFF0AF4
:10082000C8CFCB5FD74F28813981C550D840B90197
:1008300090E080E00E94410D20E030E040E85FE37E
:100840000E94290C4B015C016801CF5FD74FE88003
:10085000F980C150D8402E0C3F1C10E000E0CD5F65
:10086000D74F68817981C350D8400617170709F41C
:1008700057C0B80190E080E00E94410DA5019401AD
:100880000E94A00C2BED3FE049EC50E40E94370E93
:100890000E949B0C2FE135E84BEE5EE30E94370E81
:1008A0009B01AC0161E77DE38AE09FE30E94290C94
:1008B0002B013C01D6014D925D926D927D926D01AE
:1008C000F70121913191419151917F01BF01645014
:1008D0007109C95FD74F79836883C750D840B20187
:1008E0000E94370EC95FD74FA881B981C750D84041
:1008F0006D937D938D939C931397A3019201F101C6
:1009000092918291729162911F010E94370ED101E2
:100910006D937D938D939C9313970F5F1F4F9FCF84
:10092000B1E0B093FA061092FB06E1E0F0E0F0933C
:100930000A07E0930907CB5FD74F28803980C5505D
:10094000D840CA5DD74F1882C652D84036942794F3
:100950002114310409F477C0CA5DD74FF881C6521B
:10096000D840FF5FCA5DD74FF883C652D840EECF5C
:10097000CB5FD74F28813981C550D840B90190E06D
:1009800080E00E94410D20E030E040E85FE30E94FB
:10099000290C2B013C01CF5FD74FE880F980C15073
:1009A000D8402E0C3F1C10E000E0CD5FD74F68818F
:1009B0007981C350D8400617170709F4BCCFB80196
:1009C00090E080E00E94410DA30192010E94A00CE2
:1009D0002BED3FE049EC50E40E94370E0E949B0C47
:1009E0002FE135E84BEE5EE30E94370E9B01AC0130
:1009F00061E77DE38AE09FE30E94290C4B015C01E3
:100A0000D7012D913D914D915D917D016D01B4E036
:100A1000CB1AD1080E94370EF6016083718382835E
:100A20009383A5019401D1019E918E917E916E9147
:100A30001D010E94370EF1016083718382839383CD
:100A40000F5F1F4FB2CF2091050730910607C55D9C
:100A5000D74F39832883CB52D840CF5FD74F688197
:100A60007981C150D840C35ED74F79836883CD5117
:100A7000D840FB0130E020E090E080E0CB5FD74F32
:100A800048815981C550D840415051092417350734
:100A9000B0F528173907F8F4DC01AA0FBB1FAA0F1D
:100AA000BB1FCF5FD74F68817981C150D840A60F57
:100AB000B71FC080D180E280F3808D909D90AD9073
:100AC000BC90139780829182A282B382CD92DD92F4
:100AD000ED92FC921397CD5FD74F68817981C35017
:100AE000D8408617970728F0861B970B7695679551
:100AF000F8CF860F971F2F5F3F4F3496C7CFC15E49
:100B0000D74F1882CF51D84081E090E0C75FD74FD0
:100B100099838883C950D840CE5DD74F18821982F7
:100B20001A821B82C252D84060E070E080E89FEBDE
:100B3000CD5ED74F688379838A839B83C351D84026
:100B4000C15ED74F7881CF51D840CA5DD74F8881D9
:100B5000C652D840781709F480C2C75FD74FA88122
:100B6000B981C950D840AA0FBB1FC35DD74FB98305
:100B7000A883CD52D840C75FD74FE881F981C950CB
:100B8000D84023E0EE0FFF1F2A95E1F7CF5CD74F47
:100B9000F983E883C153D840C75FD74F2881398193
:100BA000C950D840220F331F220F331FCB5CD74FC1
:100BB00039832883C553D840CF5ED74F1982188216
:100BC000C151D840C15FD74F19821882CF50D84049
:100BD000412C512C3201C55FD74F1882CB50D840E1
:100BE000C45FD74F1882CC50D84010E80FE3C75FDE
:100BF000D74F68817981C950D840CF5ED74F88815F
:100C00009981C151D8406817790709F4D5C1CF5FE0
:100C1000D74FA881B981C150D840C15FD74FE88173
:100C2000F981CF50D840AE0FBF1FCD5FD74FB983EA
:100C3000A883C350D840C55DD74F28813981CB5296
:100C4000D8402E0F3F1FC95FD74F39832883C75025
:100C5000D840C05ED74F99838883C052D840CB5FBD
:100C6000D74F68817981C550D840C05ED74F888101
:100C70009981C052D8408617970708F020C1CD5FF0
:100C8000D74FA881B981C350D840CB5CD74FE881FA
:100C9000F981C553D840AE0FBF1FC15DD74FB9838F
:100CA000A883CF52D8408D909D90AD90BC90C95FE5
:100CB000D74F28813981C750D8402E0F3F1FCD5CB8
:100CC000D74F39832883C353D840D9016D917D9183
:100CD0008D919C91C75ED74F688379838A839B836C
:100CE000C951D840C55FD74F2881CB50D840C45F89
:100CF000D74F3881CC50D840412F502FC501B40177
:100D00000E94370E6B017C01A3019201C75ED74F91
:100D1000688179818A819B81C951D8400E94370EB0
:100D20009B01AC01C701B6010E94290C6B017C013B
:100D3000C75ED74F288139814A815B81C951D8402C
:100D4000C55FD74F6881CB50D840C45FD74F7881FB
:100D5000CC50D840812F902F0E94370EC75ED74FBE
:100D6000688379838A839B83C951D840A301920108
:100D7000C501B4010E94370E9B01AC01C75ED74F7D
:100D8000688179818A819B81C951D8400E942A0C4F
:100D90004B015C01A7019601CD5FD74FE881F98136
:100DA000C350D84060817181828193810E94290C57
:100DB000C15DD74FA881B981CF52D8406D937D9343
:100DC0008D939C931397A5019401C95FD74FE88138
:100DD000F981C750D84060817181828193810E94DE
:100DE000290CCD5CD74FA881B981C353D8406D93EE
:100DF0007D938D939C931397A7019601CD5FD74F59
:100E0000E881F981C350D8406081718182819381EA
:100E10000E942A0CCD5FD74FA881B981C350D8401A
:100E20006D937D938D939C931397A5019401C95F56
:100E3000D74FE881F981C750D840608171818281A4
:100E400093810E942A0CC95FD74FA881B981C750EE
:100E5000D8406D937D938D939C931397C05ED74F2D
:100E6000E881F981C052D840C35DD74F28813981CC
:100E7000CD52D840E20FF31FC05ED74FF983E8830D
:100E8000C052D840CD5FD74F68817981C350D840D8
:100E9000CF5CD74F88819981C153D840680F791FA3
:100EA000CD5FD74F79836883C350D840A80FB91F4F
:100EB000C95FD74FB983A883C750D840D0CECD5E85
:100EC000D74F288139814A815B81C351D840C55FA2
:100ED000D74F6881CB50D840C45FD74F7881CC5072
:100EE000D840812F902F0E94370E6B017C01CE5D80
:100EF000D74F288139814A815B81C252D840C301D2
:100F0000B2010E94370E9B01AC01C701B6010E94DD
:100F1000290C6B017C01CD5ED74F288139814A8134
:100F20005B81C351D840C301B2010E94370E4B010F
:100F30005C01CE5DD74F288139814A815B81C252E5
:100F4000D840C55FD74F6881CB50D840C45FD74FDA
:100F50007881CC50D840812F902F0E94370EA50168
:100F600094010E942A0C2B013C01CF5ED74FA8812F
:100F7000B981C151D8401196CF5ED74FB983A883AC
:100F8000C151D840C15FD74FE881F981CF50D840D7
:100F90003496C15FD74FF983E883CF50D840C55FFF
:100FA000D74FC882CB50D840C45FD74FD882CC50DF
:100FB000D8401E2D0F2D1BCE20E030E040E05FE337
:100FC000CD5ED74F688179818A819B81C351D8409A
:100FD0000E94370E4B015C01AC019B0160E070E0A8
:100FE00080E09FE30E94290C0E94AA0E6B017C0105
:100FF00020E030E040E05FE3C501B4010E942A0C2C
:101000000E94AA0ECD5ED74F688379838A839B8323
:10101000C351D840C701B6019058CE5DD74F688301
:1010200079838A839B83C252D840C15ED74F78812F
:10103000CF51D8407F5FC15ED74F7883CF51D84022
:10104000C35DD74F88819981CD52D840C75FD74FB4
:1010500099838883C950D84073CDCF5FD74FA8817B
:10106000B981C150D8401D921D921D921C921397B8
:10107000C55DD74F08811981CB52D840CB5FD74F80
:10108000E881F981C550D840E215F305C9F1C35E86
:10109000D74FA881B981CD51D8406D917D918D9167
:1010A0009D91C35ED74FB983A883CD51D840F80135
:1010B000C190D190E190F1908F019B01AC010E9411
:1010C000370E4B015C01A7019601C701B6010E94D2
:1010D000370E9B01AC01C501B4010E942A0C0E948D
:1010E000AA0EC35ED74FE881F981CD51D84034971D
:1010F0006083718382839383FFEF2F1A3F0ABECFF1
:1011000090E080E0C75DD74FA881B981C952D8402F
:101110004D915D916D917D91C75DD74FB983A88346
:10112000C952D840C95DD74FE881F981C752D8402C
:10113000E80FF91F408351836283738304968115FE
:10114000B1E09B07F9F6C95DD74FE881F981C75235
:10115000D840F395C95DD74FF983E883C752D8408B
:10116000C95ED74F28813981C751D8402E5F3F4F84
:10117000C95ED74F39832883C751D84066E172E0F2
:101180006217730709F068CA10E000E09801220FA7
:10119000232F221F330BB901032E000C880B990B50
:1011A00037FF78C00E94D20288E292E00E9481025A
:1011B000C35FD74F28803980CD50D840812C912CE7
:1011C00054018EE292E00E9481024AE0C501B4011E
:1011D0000E948E028BE292E00E948102D101CD90AA
:1011E000DD90ED90FC90A7019601C701B6010E9429
:1011F000EA0E882309F452C086E392E00E9481023D
:101200008CE292E00E948102BFEF8B1A9B0AAB0A2C
:10121000BB0A3394F8E08F169104A104B10489F657
:1012200082E492E00E948102005F184DC35FD74FB5
:1012300028813981CD50D8402C5F3F4FC35FD74FB5
:1012400039832883CD50D840011534EC130709F0B9
:101250009DCF85E492E00E94810282E492E0CA5C24
:10126000D74F0FB6F894DEBF0FBECDBFDF91CF9141
:101270001F910F91FF90EF90DF90CF90BF90AF90B4
:101280009F908F907F906F905F904F903F902F90A6
:101290000C9481024AE00E948E0286CF260137011B
:1012A000E89477F82FEF3FEF4FE75FE7C301B20114
:1012B0000E94EA0E81110DC02FEF3FEF4FE75FE76D
:1012C000C301B2010E94960C18161CF48AE392E046
:1012D00095CF2FEF3FEF4FE75FE4C701B6010E94C4
:1012E000320E18161CF48EE392E088CF2FEF3FEFFA
:1012F0004FE75FECC701B6010E94960C87FDF3CF64
:1013000020E030E0A901C701B6010E94960C87FFDA
:1013100009C06DE28DE592E00E94E301F7FAF094D6
:10132000F7F8F0942AE037ED43EA5BE3C701B60132
:101330000E942A0C2B013C010E94120D6B017C01C2
:101340000E94410D9B01AC01C301B2010E94290C16
:101350002B013C014AE0C701B6010E948E026EE2F9
:101360008DE592E00E94E30120E030E040E251E4AC
:10137000C301B2010E94370E2B013C010E94120DE5
:101380006B01F12CE12C4AE0C701B6010E948E02EC
:10139000C701B6010E94410D9B01AC01C301B2011E
:1013A0000E94290C20E030E040E251E40E94370E18
:1013B0000E94120D90E080E04AE00E948E0220CF51
:1013C0001F920F920FB60F9211242F933F938F937A
:1013D0009F93AF93BF938091550290915602A09135
:1013E0005702B09158023091540223E0230F2D3759
:1013F00058F50196A11DB11D20935402809355020A
:1014000090935602A0935702B093580280915902CC
:1014100090915A02A0915B02B0915C020196A11DCD
:10142000B11D8093590290935A02A0935B02B0932E
:101430005C02BF91AF919F918F913F912F910F903F
:101440000FBE0F901F90189526E8230F0296A11D3E
:10145000B11DD2CF1F920F920FB60F9211240BB66F
:101460000F922F933F934F935F936F937F938F933D
:101470009F93AF93BF93EF93FF938DE592E00E940C
:10148000C101FF91EF91BF91AF919F918F917F919A
:101490006F915F914F913F912F910F900BBE0F90E5
:1014A0000FBE0F901F9018951F920F920FB60F92BC
:1014B00011240BB60F922F938F939F93EF93FF936B
:1014C000E0916D02F0916E028081E0917302F091E3
:1014D000740282FD1DC09081809176028F5F8F73B0
:1014E00020917702821741F0E0917602F0E0E35A12
:1014F000FD4F958F80937602FF91EF919F918F9191
:101500002F910F900BBE0F900FBE0F901F9018954C
:101510008081F2CFEDE5F2E01382128288EE93E053
:10152000A0E0B0E084839583A683B7838AE192E04C
:101530009183808385EC90E09587848784EC90E0AC
:101540009787868780EC90E0918B808B81EC90E090
:10155000938B828B82EC90E0958B848B86EC90E071
:10156000978B868B118E128E138E148EEAEFF6E017
:10157000108211821482138280E890E09683858322
:1015800080E090E4ACE1B6E487839087A187B287DE
:101590008AEF92E0948783878AEF94E09687858725
:1015A00087E082830895789484B5826084BD84B591
:1015B000816084BD85B5826085BD85B5816085BD4E
:1015C00080916E00816080936E0010928100809106
:1015D000810082608093810080918100816080938E
:1015E0008100809180008160809380008091B100B3
:1015F00084608093B1008091B00081608093B000DE
:10160000809191008260809391008091910081602F
:1016100080939100809190008160809390008091F0
:10162000A10082608093A1008091A10081608093DD
:10163000A1008091A00081608093A0008091210191
:10164000826080932101809121018160809321013A
:101650008091200181608093200180917A008460D4
:1016600080937A0080917A00826080937A008091E2
:101670007A00816080937A0080917A0080688093FC
:101680007A001092C10080917A00846080937A0081
:1016900080917A008D7F80937A0080917A008E7F8E
:1016A00080937A00E0916D02F0916E0282E0808377
:1016B000E0916902F0916A021082E0916B02F09170
:1016C0006C0280E1808310927502E0917102F091CA
:1016D000720286E08083E0916F02F0917002808157
:1016E00080618083E0916F02F09170028081886058
:1016F0008083E0916F02F091700280818068808326
:10170000E0916F02F091700280818F7D8083E9EA21
:10171000F1E02491E3E6F1E08491882399F090E0F0
:10172000880F991FFC01E05CFE4FA591B491FC016C
:10173000EA5DFE4F859194918FB7F894EC91E22B7E
:10174000EC938FBFEAEAF1E02491E4E6F1E08491C2
:101750008823C1F090E0880F991FFC01E05CFE4FE8
:10176000C591D491FC01EA5DFE4FA591B4919FB75C
:10177000F8948881E22FE0958E2388838C91E8236A
:10178000EC939FBF84E690E090934F0280934E02CB
:101790002FB7F8948091550290915602A09157026C
:1017A000B09158022FBF4091500250915102609168
:1017B000520270915302841B950BA60BB70B803D10
:1017C0009740A105B105A8F00E94F3022FB7F89445
:1017D0008091550290915602A0915702B091580203
:1017E0002FBF8093500290935102A0935202B09366
:1017F00053020E9428014B015C0182E3C82ED12CC8
:10180000E12CF12C0E942801681979098A099B09A9
:10181000683E734081059105A8F381E0C81AD1089C
:10182000E108F10828EE820E23E0921EA11CB11CF3
:10183000C114D104E104F10429F70E945002A8CF99
:101840008091FD069091FE06009711F00C94051012
:1018500008955058BB27AA270E94410C0C94E40D10
:101860000E94AB0D38F00E94B20D20F039F49F3F7A
:1018700019F426F40C94A80D0EF4E095E7FB0C94F3
:10188000A20DE92F0E94090E58F3BA1762077307D9
:101890008407950720F079F4A6F50C942B0E0EF42E
:1018A000E0950B2EBA2FA02D0B01B90190010C0170
:1018B000CA01A0011124FF27591B99F0593F50F488
:1018C000503E68F11A16F040A22F232F342F4427E0
:1018D000585FF3CF469537952795A795F0405395D8
:1018E000C9F77EF41F16BA0B620B730B840BBAF0A8
:1018F0009150A1F0FF0FBB1F661F771F881FC2F713
:101900000EC0BA0F621F731F841F48F48795779526
:101910006795B795F7959E3F08F0B0CF9395880FE0
:1019200008F09927EE0F9795879508950E947E0DF0
:1019300008F481E008950E94BB0DE3950C94F50D29
:101940000E94B40C0C94E40D0E94B20D58F00E9459
:10195000AB0D40F029F45F3F29F00C94A20D51111A
:101960000C942C0E0C94A80D0E94090E68F3992378
:10197000B1F3552391F3951B550BBB27AA2762178B
:101980007307840738F09F5F5F4F220F331F441F98
:10199000AA1FA9F335D00E2E3AF0E0E832D09150CC
:1019A0005040E695001CCAF72BD0FE2F29D0660FB9
:1019B000771F881FBB1F261737074807AB07B0E8FC
:1019C00009F0BB0B802DBF01FF2793585F4F3AF002
:1019D0009E3F510578F00C94A20D0C942C0E5F3FA5
:1019E000E4F3983ED4F3869577956795B795F79588
:1019F0009F5FC9F7880F911D9695879597F9089570
:101A0000E1E0660F771F881FBB1F6217730784070B
:101A1000BA0720F0621B730B840BBA0BEE1F88F71A
:101A2000E09508950E94110E88F09F5798F0B92F05
:101A30009927B751B0F0E1F0660F771F881F991F03
:101A40001AF0BA95C9F714C0B13091F00E942B0E6C
:101A5000B1E008950C942B0E672F782F8827B85F7C
:101A600039F0B93FCCF3869577956795B395D9F75B
:101A70003EF490958095709561957F4F8F4F9F4F65
:101A80000895E89409C097FB3EF490958095709571
:101A900061957F4F8F4F9F4F9923A9F0F92F96E9BA
:101AA000BB279395F695879577956795B795F1112F
:101AB000F8CFFAF4BB0F11F460FF1BC06F5F7F4FCC
:101AC0008F4F9F4F16C0882311F096E911C07723DE
:101AD00021F09EE8872F762F05C0662371F096E8E7
:101AE000862F70E060E02AF09A95660F771F881FB6
:101AF000DAF7880F9695879597F90895990F00085A
:101B0000550FAA0BE0E8FEEF16161706E807F907CF
:101B1000C0F012161306E407F50798F0621B730B6A
:101B2000840B950B39F40A2661F0232B242B252BEB
:101B300021F408950A2609F4A140A6958FEF811D8E
:101B4000811D089597F99F6780E870E060E008952F
:101B50009FEF80EC089500240A94161617061806C5
:101B60000906089500240A941216130614060506A1
:101B700008950C94A80D0E94110ED8F3E894E0E0AB
:101B8000BB279F57F0F02AED3FE049EC06C0EE0F6F
:101B9000BB0F661F771F881F28F0B23A62077307D2
:101BA000840728F0B25A620B730B840BE3959A9565
:101BB00072F7803830F49A95BB0F661F771F881F25
:101BC000D2F790480C94F10E092E0394000C11F4F6
:101BD000882352F0BB0F40F4BF2B11F460FF04C008
:101BE0006F5F7F4F8F4F9F4F0895EF93E0FF07C0C8
:101BF000A2EA2AED3FE049EC5FEB0E94410C0E9413
:101C0000E40D0F90039401FC9058E4EEF0E00C9486
:101C1000040F57FD9058440F551F59F05F3F71F066
:101C20004795880F97FB991F61F09F3F79F0879543
:101C30000895121613061406551FF2CF4695F1DFCC
:101C400008C0161617061806991FF1CF869571055C
:101C5000610508940895E894BB2766277727CB0190
:101C600097F908950E947E0D08F48FEF08950E9461
:101C70004A0E0C94E40D0E94AB0D38F00E94B20D98
:101C800020F0952311F00C94A20D0C94A80D1124B2
:101C90000C942C0E0E94090E70F3959FC1F3950FC2
:101CA00050E0551F629FF001729FBB27F00DB11DE0
:101CB000639FAA27F00DB11DAA1F649F6627B00D70
:101CC000A11D661F829F2227B00DA11D621F739F59
:101CD000B00DA11D621F839FA00D611D221F749F67
:101CE0003327A00D611D231F849F600D211D822FAE
:101CF000762F6A2F11249F5750409AF0F1F08823D5
:101D00004AF0EE0FFF1FBB1F661F771F881F915001
:101D10005040A9F79E3F510580F00C94A20D0C9401
:101D20002C0E5F3FE4F3983ED4F386957795679544
:101D3000B795F795E7959F5FC1F7FE2B880F911D2B
:101D40009695879597F9089519F416F40C94A80DB3
:101D50000C94EF0E0E94110EB8F39923C9F3B6F359
:101D60009F57550B87FF0E94FD0E0024A0E640EA16
:101D7000900180585695979528F4805C660F771FE0
:101D8000881F20F026173707480730F4621B730BB3
:101D9000840B202931294A2BA695179407942025D6
:101DA00031254A2758F7660F771F881F20F026171E
:101DB0003707480730F4620B730B840B200D311D7D
:101DC000411DA09581F7B901842F9158880F9695F0
:101DD000879508950E947E0D880B990B08959F3F6B
:101DE00031F0915020F4879577956795B795880FD6
:101DF000911D9695879597F9089591505040660FDB
:101E0000771F881FD2F708959F938F937F936F93C7
:101E1000FF93EF939B01AC010E94370EEF91FF916E
:101E20000E94180F2F913F914F915F910C94370EA4
:101E3000DF93CF931F930F93FF92EF92DF927B017B
:101E40008C01689406C0DA2EEF010E944A0EFE0152
:101E5000E894A5912591359145915591A6F3EF010F
:101E60000E94410CFE019701A801DA9469F7DF9006
:101E7000EF90FF900F911F91CF91DF910895A1E214
:101E80001A2EAA1BBB1BFD010DC0AA1FBB1FEE1FF4
:101E9000FF1FA217B307E407F50720F0A21BB30B3F
:101EA000E40BF50B661F771F881F991F1A9469F7BB
:101EB00060957095809590959B01AC01BD01CF0117
:101EC0000895EE0FFF1F881F8BBF0790F691E02D3E
:101ED00019940F931F93CF93DF938230910510F4E1
:101EE00082E090E0E0910D07F0910E0730E020E0F5
:101EF000B0E0A0E0309799F42115310509F44AC00B
:101F0000281B390B24303105D8F58A819B81611556
:101F1000710589F1FB0193838283FE0111C0408129
:101F200051810281138148175907E0F0481759077A
:101F300099F4109761F012960C93129713961C93D4
:101F40003296CF01DF91CF911F910F9108950093A9
:101F50000D0710930E07F4CF2115310551F04217EC
:101F6000530738F0A901DB019A01BD01DF01F80137
:101F7000C1CFEF01F9CF90930E0780930D07CDCF1E
:101F8000FE01E20FF31F81939193225031093983AF
:101F90002883D7CF20910B0730910C07232B41F4D6
:101FA000209102023091030230930C0720930B071B
:101FB00020910002309101022115310541F42DB725
:101FC0003EB74091040250910502241B350BE0916D
:101FD0000B07F0910C07E217F307A0F42E1B3F0B41
:101FE0002817390778F0AC014E5F5F4F241735078B
:101FF00048F04E0F5F1F50930C0740930B078193DF
:1020000091939FCFF0E0E0E09CCFCF93DF930097D8
:10201000E9F0FC01329713821282A0910D07B09172
:102020000E07ED0130E020E01097A1F4208131810E
:10203000820F931F20910B0730910C072817390747
:1020400009F061C0F0930C07E0930B07DF91CF918B
:102050000895EA01CE17DF07E8F54A815B819E010A
:1020600041155105B1F7E901FB83EA834991599183
:10207000C40FD51FEC17FD0761F480819181029692
:10208000840F951FE90199838883828193819B83C3
:102090008A83F0E0E0E012968D919C91139700976F
:1020A000B9F52D913C911197CD010296820F931FA6
:1020B00020910B0730910C072817390739F6309714
:1020C00051F510920E0710920D07B0930C07A093D4
:1020D0000B07BCCFD383C28340815181840F951FEE
:1020E000C817D90761F44E5F5F4F88819981480F07
:1020F000591F518340838A819B8193838283211559
:10210000310509F0B0CFF0930E07E0930D079ECF95
:10211000FD01DC01C0CF13821282D7CF10E0C4EFE3
:10212000D0E000E006C0802FFE010E94610F2196E2
:10213000011DC53FD10780E00807A9F7F894FFCF3C
:1021400000000F07800036003700380039003A00E1
:102150003B003C003D0000000000E3014D017A011E
:102160003002AB0189019D0120487A3A2000536575
:102170006E736F7220006E616E00696E66006F761E
:0A21800066000D0A002D2D2D000051
:020000040003F7
:10E000000D9489F10D94B2F10D94B2F10D94B2F129
:10E010000D94B2F10D94B2F10D94B2F10D94B2F1F0
:10E020000D94B2F10D94B2F10D94B2F10D94B2F1E0
:10E030000D94B2F10D94B2F10D94B2F10D94B2F1D0
:10E040000D94B2F10D94B2F10D94B2F10D94B2F1C0
:10E050000D94B2F10D94B2F10D94B2F10D94B2F1B0
:10E060000D94B2F10D94B2F10D94B2F10D94B2F1A0
:10E070000D94B2F10D94B2F10D94B2F10D94B2F190
:10E080000D94B2F10D94B2F10D94B2F10D94B2F180
:10E090000D94B2F10D94B2F10D94B2F10D94B2F170
:10E0A0000D94B2F10D94B2F10D94B2F10D94B2F160
:10E0B0000D94B2F10D94B2F10D94B2F10D94B2F150
:10E0C0000D94B2F10D94B2F10D94B2F10D94B2F140
:10E0D0000D94B2F10D94B2F10D94B2F10D94B2F130
:10E0E0000D94B2F141546D656761323536300041AF
:10E0F000726475696E6F206578706C6F72657220DE
:10E1000073746B3530305632206279204D4C530099
:10E11000426F6F746C6F616465723E004875683F52
:10E1200000436F6D70696C6564206F6E203D200048
:10E130004350552054797065202020203D20005FF9
:10E140005F4156525F415243485F5F3D2000415658
:10E1500052204C696243205665723D20004743437C
:10E160002056657273696F6E203D20004350552024
:10E1700049442020202020203D20004C6F7720663D
:10E18000757365202020203D20004869676820665F
:10E190007573652020203D200045787420667573D6
:10E1A00065202020203D20004C6F636B2066757336
:10E1B000652020203D20004D617220203720323024
:10E1C000313300312E362E3800342E332E350056A2
:10E1D00023202020414444522020206F7020636F70
:10E1E00064652020202020696E73747275637469E1
:10E1F0006F6E2061646472202020496E74657272B3
:10E20000757074006E6F20766563746F7200726A49
:10E210006D702020006A6D70200057686174207056
:10E220006F72743A00506F7274206E6F7420737541
:10E2300070706F72746564004D7573742062652030
:10E2400061206C6574746572002000577269747483
:10E25000696E672045450052656164696E672045B7
:10E26000450045452065727220636E743D00504F35
:10E27000525400303D5A65726F2061646472003FF1
:10E280003D43505520737461747300403D454550C3
:10E29000524F4D207465737400423D426C696E6B41
:10E2A000204C454400453D44756D70204545505215
:10E2B0004F4D00463D44756D7020464C415348001B
:10E2C000483D48656C70004C3D4C69737420492F83
:10E2D0004F20506F72747300513D51756974005234
:10E2E0003D44756D702052414D00563D73686F7707
:10E2F00020696E7465727275707420566563746FF0
:10E30000727300593D506F727420626C696E6B00BD
:10E310002A0011241FBECFEFD1E2DEBFCDBF01E046
:10E320000CBF12E0A0E0B2E0EEE1FDEF03E00BBFB6
:10E3300002C007900D92A030B107D9F712E0A0E01B
:10E34000B2E001C01D92AE30B107E1F70F9460F367
:10E350000D948DFE01E20EBF0FEF0DBF11241FBE05
:10E360000D9460F30D9400F020E030E040ED57E0B4
:10E3700005C0FA013197F1F72F5F3F4F2817390792
:10E38000C0F308959C01260F311DC901A0E0B0E043
:10E390002F5F3F4FABBFFC018791882361F08093D3
:10E3A000C6008091C00086FFFCCF8091C0008064D1
:10E3B0008093C000EACF08958DE08093C6008091DD
:10E3C000C00086FFFCCF8091C00080648093C000B5
:10E3D0008AE08093C6008091C00086FFFCCF8091C8
:10E3E000C00080648093C00008950F94C2F10F9420
:10E3F000DCF10895FC019081992359F09093C600B7
:10E400008091C00086FFFCCF8091C0008064809323
:10E41000C0003196992379F70895282F982F929567
:10E420009F70892F805D8A3308F0895F8093C600D2
:10E430008091C00086FFFCCF8091C00080648093F3
:10E44000C000822F8F70982F905D9A3308F0995FEB
:10E450009093C6008091C00086FFFCCF8091C000E1
:10E4600080648093C00008959C01FB01853691056E
:10E470001CF46330710594F0C90164E670E00F94F8
:10E480002EFE605D7F4F6093C6008091C00086FFC6
:10E49000FCCF8091C00080648093C0002B30310598
:10E4A00014F43297B4F0C90164E670E00F942EFEC4
:10E4B0006AE070E00F942EFE605D7F4F6093C600AF
:10E4C0008091C00086FFFCCF8091C0008064809363
:10E4D000C000C9016AE070E00F942EFEC0968093E0
:10E4E000C6008091C00086FFFCCF8091C000806490
:10E4F0008093C00008951F93182F8EE692EE60E07F
:10E500000F94C2F11093C6008091C00086FFFCCF2B
:10E510008091C00080648093C0000F94DCF11F9153
:10E5200008952F923F924F925F926F927F928F92B7
:10E530009F92AF92BF92CF92DF92EF92FF920F9392
:10E540001F93DF93CF93CDB7DEB762970FB6F894E2
:10E55000DEBF0FBECDBF382E622ECA01DB015C01CB
:10E560006D01772420E2222E2E010894411C511CBB
:10E570008BC081E0A81680E0B80681E0C80680E084
:10E58000D80628F0C601AA27BB270F940DF2BB2797
:10E59000AD2D9C2D8B2D0F940DF28A2D0F940DF225
:10E5A0002092C6008091C00086FFFCCF8091C00001
:10E5B00080648093C0009DE29093C6008091C0006B
:10E5C00086FFFCCF8091C00080648093C0002092C1
:10E5D000C6008091C00086FFFCCF8091C00080649F
:10E5E0008093C00019828601750188249924A1E0D6
:10E5F0003A1651F03A1620F0B2E03B1661F409C029
:10E600000BBFF701779007C0C7010F9477FE782EF4
:10E6100002C0F7017080872D0F940DF22092C60082
:10E620008091C00086FFFCCF8091C0008064809301
:10E63000C000872D8052F401EF70F0708F3520F408
:10E64000E40DF51D708204C0E40DF51D8EE280839B
:10E650000894E11CF11C011D111D0894811C911CE2
:10E6600090E18916910409F0C2CF80E190E0A0E02A
:10E67000B0E0A80EB91ECA1EDB1E198AC2010F9493
:10E68000FAF10F94DCF16A94662009F072CF629679
:10E690000FB6F894DEBF0FBECDBFCF91DF911F91B3
:10E6A0000F91FF90EF90DF90CF90BF90AF909F9031
:10E6B0008F907F906F905F904F903F902F90089534
:10E6C0002F923F924F925F926F927F928F929F9282
:10E6D000AF92BF92CF92DF92EF92FF920F931F9370
:10E6E000DF93CF93CDB7DEB7CD53D1400FB6F894BB
:10E6F000DEBF0FBECDBF01E20EBF0FEF0DBF94B75F
:10E70000F894A89514BE80916000886180936000A1
:10E7100010926000789493FF05C0E0910002F091A0
:10E7200001021995279A2F9A8091C00082608093E8
:10E73000C00080E18093C40088E18093C1000000A4
:10E74000EE24FF24870144E0A42EB12CCC24DD2448
:10E7500024C0C5010197F1F70894E11CF11C011DCB
:10E76000111D21E2E2162EE4F20620E0020720E06D
:10E77000120718F031E0C32ED12CC801B70127ECE5
:10E780003BE140E050E00F9441FE611571058105C9
:10E79000910519F485B1805885B98091C00087FD35
:10E7A00003C0C114D104A9F2A6014F5F5F4FC25E3E
:10E7B000DE4F59834883CE51D140C25EDE4F8881FF
:10E7C0009981CE51D140019711F00D9410FEC05D9A
:10E7D000DE4F19821882C053D14060E0C15DDE4F28
:10E7E0001882CF52D14088249924C35DDE4F19820C
:10E7F0001882CD52D140C05EDE4F188219821A8233
:10E800001B82C052D140CE5CDE4F188219821A8220
:10E810001B82C253D140EE24FF2487010BBFF701B6
:10E8200007911691C45CDE4F19830883CC53D14005
:10E830000D940BFEC25EDE4F28813981CE51D1404E
:10E840002130310509F52091C600C25EDE4F1982E4
:10E850001882CE51D14022C02F5F3F4F4F4F5F4FA4
:10E86000213082E138078AE7480780E0580780F0C6
:10E87000C45CDE4FE881F981CC53D140EF5FFF4F9C
:10E8800019F0EE27FF27099420E030E040E050E047
:10E890008091C00087FFE0CF2091C600C35DDE4FAE
:10E8A00048815981CD52D1404F5F5F4FC35DDE4FEC
:10E8B00059834883CD52D140213209F063C64A3092
:10E8C000510508F05FC60894811C911C53E0851621
:10E8D000910409F059C600E010E018C081E280936D
:10E8E000C6008091C00086FFFCCF8091C00080648C
:10E8F0008093C0002F5F3F4F2931310579F70F9486
:10E90000DCF10F5F1F4F0530110519F020E030E0FA
:10E91000E5CF10920A0210920B0210920C02109294
:10E920000D02109206021092070210920802109235
:10E930000902109202021092030210920402109235
:10E9400005028FEE90EE60E00F94F5F180E191EE1C
:10E9500060E00F94C2F18091C00087FFFCCF9091DE
:10E96000C600903608F09F759032B8F09093C600BC
:10E970008091C00086FFFCCF8091C00080648093AE
:10E98000C000A0E2A093C6008091C00086FFFCCF2B
:10E990008091C00080648093C000983409F4D7C18E
:10E9A0009934B8F4923409F459C1933458F490333B
:10E9B00019F1903308F4E3C59F33A1F1903409F0C5
:10E9C000DEC5BDC0953409F470C1963409F0D7C5D1
:10E9D00098C1923509F42BC2933538F49C3409F46C
:10E9E000F5C1913509F0CBC518C2963509F445C279
:10E9F000993509F0C4C567C483E792EE62E00F94CD
:10EA0000F5F110920602109207021092080210927D
:10EA1000090210920A0210920B0210920C0210923C
:10EA20000D0213C18FE792EE62E00F94F5F18FEEC5
:10EA300090EE60E00F94F5F181E291EE60E00F94CA
:10EA4000C2F187EB91EE60E00F94F5F180E391EE77
:10EA500060E00F94C2F184EE90EE60E00F94F5F167
:10EA60008FE391EE60E00F94C2F186E090E061E008
:10EA700070E00F9434F20F94DCF18DE591EE60E0DC
:10EA80000F94C2F189EC91EE60E00F94F5F18EE401
:10EA900091EE60E00F94C2F183EC91EE60E00F9490
:10EAA000F5F18CE691EE60E00F94C2F18EE10F94E7
:10EAB0000DF288E90F940DF281E00F940DF20F949E
:10EAC000DCF18BE791EE60E00F94C2F119E0E0E039
:10EAD000F0E010935700E4918E2F0F940DF20F94F5
:10EAE000DCF18AE891EE60E00F94C2F1E3E0F0E03F
:10EAF00010935700E4918E2F0F940DF20F94DCF1D8
:10EB000089E991EE60E00F94C2F1E2E0F0E0109349
:10EB10005700E4918E2F0F940DF20F94DCF188EAE8
:10EB200091EE60E00F94C2F1E1E0F0E01093570045
:10EB30001491812F0F940DF20F94DCF107CF8BE825
:10EB400092EE62E00F94F5F18BE492EE60E00F94A8
:10EB5000F5F10F94DCF100E010E019C0C8016F2D51
:10EB60000F947FFEFF2031F489E492EE60E00F9471
:10EB7000C2F10BC0F092C6008091C00086FFFCCFAE
:10EB80008091C00080648093C0000F5F1F4FC80158
:10EB900081519F41A0E0B0E0ABBFFC01F790BAE229
:10EBA000FB1621F0E2E000301E07C1F60F94DCF105
:10EBB0000F94DCF187E592EE60E00F94F5F10F948D
:10EBC000DCF1CC24DD2400E010E01EC0C8010F946D
:10EBD00077FEF82E882331F489E492EE60E00F94FA
:10EBE000C2F10BC08093C6008091C00086FFFCCFAD
:10EBF0008091C00080648093C000FE1419F00894D6
:10EC0000C11CD11C0F5F1F4FC80181519F41A0E063
:10EC1000B0E0ABBFFC01E790FAE2EF1621F022E092
:10EC20000030120799F60F94DCF10F94DCF182E6C4
:10EC300092EE60E00F94C2F1C60161E070E00F94C3
:10EC400034F20F94DCF10F94DCF110920202109276
:10EC50000302109204021092050278CE89E992EE26
:10EC600062E00F94F5F1279A2F9A16C02F9880E052
:10EC700090E0E0EDF7E03197F1F7019684369105E9
:10EC8000C1F72F9A80E090E0E0EDF7E03197F1F7DF
:10EC9000019684369105C1F78091C00087FFE6CFC9
:10ECA0008091C00087FFFCCF64C485EA92EE62E0E9
:10ECB0000F94F5F140910202509103026091040219
:10ECC0007091050281E020E10F9491F2809102029F
:10ECD00090910302A0910402B091050280509F4FD1
:10ECE000AF4FBF4F8093020290930302A0930402A0
:10ECF000B093050280509041A040B04008F426CE69
:10ED0000A4CF83EB92EE62E00F94F5F140910602FE
:10ED100050910702609108027091090280E020E1A1
:10ED20000F9491F28091060290910702A09108023F
:10ED3000B091090280509F4FAF4FBF4F80930602A2
:10ED400090930702A0930802B0930902FFCD80ECD4
:10ED500092EE62E00F94F5F183E792EE60E00F949B
:10ED6000F5F18FE792EE60E00F94F5F18BE892EE0B
:10ED700060E00F94F5F189E992EE60E00F94F5F10F
:10ED800085EA92EE60E00F94F5F183EB92EE60E09D
:10ED90000F94F5F180EC92EE60E00F94F5F187ECC2
:10EDA00092EE60E00F94F5F188ED92EE60E00F9442
:10EDB000F5F18FED92EE60E00F94F5F18AEE92EEB0
:10EDC00060E00F94F5F183E093EEBDCD87EC92EE19
:10EDD00062E00F94F5F181E40F947BF282E40F94EA
:10EDE0007BF283E40F947BF284E40F947BF285E45E
:10EDF0000F947BF286E40F947BF287E40F947BF20E
:10EE000088E40F947BF28AE40F947BF28BE40F94F6
:10EE10007BF28CE40F947BF299CD88ED92EE62E068
:10EE20000F94F5F1772473948824992409C48FED05
:10EE300092EE62E00F94F5F140910A0250910B02BC
:10EE400060910C0270910D0282E020E10F9491F22A
:10EE500080910A0290910B02A0910C02B0910D02D8
:10EE600080509F4FAF4FBF4F80930A0290930B0289
:10EE7000A0930C02B0930D0269CD8AEE92EE62E08F
:10EE80000F94F5F184EE90EE60E00F94F5F18FECC5
:10EE900091EE60E00F94F5F1662477244301CC5D98
:10EEA000DE4F19821882C452D140D401C301B695F5
:10EEB000A79597958795CA5DDE4F88839983AA8326
:10EEC000BB83C652D140CC5DDE4FA881B981C4520C
:10EED000D1401196CC5DDE4FB983A883C452D14096
:10EEE000CD0162E070E00F9434F2B0E2B093C6005E
:10EEF0008091C00086FFFCCF8091C0008064809329
:10EF0000C000EDE2E093C6008091C00086FFFCCF18
:10EF10008091C00080648093C000F0E2F093C6004E
:10EF20008091C00086FFFCCF8091C00080648093F8
:10EF3000C000CA5DDE4FE880F9800A811B81C6529D
:10EF4000D140BB27A12F902F8F2D0F940DF2CA5DBA
:10EF5000DE4F8881C652D1400F940DF2B0E2FB2EF5
:10EF6000F092C6008091C00086FFFCCF8091C00067
:10EF700080648093C0000DE30093C6008091C000C0
:10EF800086FFFCCF8091C00080648093C00010E2B7
:10EF90001093C6008091C00086FFFCCF8091C00016
:10EFA00080648093C0008BBEF3012791C65DDE4F65
:10EFB0002883CA52D140A22EBB24CC24DD2408943D
:10EFC000611C711C811C911C8BBEF3018791282E42
:10EFD0003324442455240894611C711C811C911C09
:10EFE0008BBEF3013791C55DDE4F3883CB52D140E4
:10EFF0000894611C711C811C911C8BBEF30147910C
:10F00000C45DDE4F4883CC52D140ADEFEA2EAFEF66
:10F01000FA2EAFEF0A2FAFEF1A2F6E0C7F1C801E57
:10F02000911E142D032DF22CEE24EA0CFB1C0C1D5A
:10F030001D1D0F940DF220E22093C6008091C000A8
:10F0400086FFFCCF8091C00080648093C000C65DC5
:10F05000DE4F8881CA52D1400F940DF230E23093D6
:10F06000C6008091C00086FFFCCF8091C000806404
:10F070008093C000C45DDE4F8881CC52D1400F9494
:10F080000DF240E24093C6008091C00086FFFCCFA5
:10F090008091C00080648093C000C55DDE4F888190
:10F0A000CB52D1400F940DF250E25093C6008091A4
:10F0B000C00086FFFCCF8091C00080648093C000B8
:10F0C0008FEFE8168FEFF80680E0080780E018075A
:10F0D00031F484E092EE60E00F94C2F1DFC0D80119
:10F0E000C7018070907CA070B0708050904CA040A0
:10F0F000B040D1F52FEF3FE340E050E0E222F322B1
:10F1000004231523CA5DDE4FA880B980CA80DB8046
:10F11000C652D140AE0CBF1CC01ED11EAA0CBB1CD7
:10F12000CC1CDD1C8EE092EE60E00F94C2F1BB2798
:10F13000A12F902F8F2D0F940DF28E2D0F940DF285
:10F1400030E23093C6008091C00086FFFCCF8091F2
:10F15000C00080648093C0004EE34093C60080915D
:10F16000C00086FFFCCF87C08EE09EEFA0E0B0E03D
:10F17000E822F9220A231B239CE0E91694E9F90608
:10F1800090E0090790E0190709F088C0C45DDE4FE0
:10F19000A881CC52D140EA2EFF2400E010E0102FCD
:10F1A0000F2DFE2CEE24C55DDE4FB881CB52D14031
:10F1B000EB0EF11C011D111DD601C501817090706F
:10F1C000A070B070DC0199278827E80EF91E0A1F8D
:10F1D0001B1F20EF30E040E050E0A222B322C42207
:10F1E000D52241E1AA0CBB1CCC1CDD1C4A95D1F7F1
:10F1F000EA0CFB1C0C1D1D1D81E090E0A0E0B0E0BE
:10F20000282239224A225B2235E1220C331C441C7D
:10F21000551C3A95D1F7E20CF31C041D151D57013E
:10F220006801AA0CBB1CCC1CDD1C85E192EE60E0E1
:10F230000F94C2F1C801AA27BB270F940DF2BB2778
:10F24000A12F902F8F2D0F940DF28E2D0F940DF274
:10F2500090E29093C6008091C00086FFFCCF809121
:10F26000C00080648093C000AEE3A093C60080918C
:10F27000C00086FFFCCF8091C00080648093C000F6
:10F28000C601AA27BB270F940DF2BB27AD2D9C2DDD
:10F290008B2D0F940DF28A2D0F940DF20F94DCF14B
:10F2A000CC5DDE4FE881F981C452D140F99709F471
:10F2B0004DCBF4E0EF2EF12C012D112D6E0C7F1CA7
:10F2C000801E911EF2CD83E093EE62E00F94F5F183
:10F2D0008AE192EE60E00F94C2F18091C00087FF56
:10F2E000FCCF1091C6001F751093C6008091C0001E
:10F2F00086FFFCCF8091C00080648093C0000F9493
:10F30000DCF1812F81548A3108F036C1163409F4BA
:10F3100095C0173490F4133409F44EC0143430F40B
:10F320001134F1F0123409F01DC130C0143409F465
:10F3300059C0153409F016C16BC01A3409F4C4C0A1
:10F340001B3438F4173409F48FC0183409F00AC19B
:10F35000A1C01B3409F4D2C01C3409F003C1E8C0B9
:10F360008FEF81B90DC082B1809582B980E090E0C5
:10F37000E0EDF7E03197F1F70196883C9105C1F790
:10F380008091C00087FFEFCF12B8EFC08FEF84B934
:10F390000DC085B1809585B980E090E0E0EDF7E0A3
:10F3A0003197F1F70196883C9105C1F78091C00033
:10F3B00087FFEFCF15B8D9C08FEF87B90DC088B1DF
:10F3C000809588B980E090E0E0EDF7E03197F1F7C3
:10F3D0000196883C9105C1F78091C00087FFEFCF6F
:10F3E00018B8C3C08FEF8AB90DC08BB180958BB9A7
:10F3F00080E090E0E0EDF7E03197F1F70196883C8E
:10F400009105C1F78091C00087FFEFCF1BB8ADC059
:10F410008FEF8DB90DC08EB180958EB980E090E0F0
:10F42000E0EDF7E03197F1F70196883C9105C1F7DF
:10F430008091C00087FFEFCF1EB897C08FEF80BBD1
:10F440000DC081B3809581BB80E090E0E0EDF7E0F6
:10F450003197F1F70196883C9105C1F78091C00082
:10F4600087FFEFCF11BA81C08FEF83BB0DC084B38C
:10F47000809584BB80E090E0E0EDF7E03197F1F714
:10F480000196883C9105C1F78091C00087FFEFCFBE
:10F4900014BA6BC08FEF809301010FC080910201FD
:10F4A00080958093020180E090E0E0EDF7E03197F5
:10F4B000F1F70196883C9105C1F78091C00087FF64
:10F4C000EDCF1092020151C08FEF809304010FC065
:10F4D0008091050180958093050180E090E0E0ED4A
:10F4E000F7E03197F1F70196883C9105C1F78091DB
:10F4F000C00087FFEDCF1092050137C08FEF8093DA
:10F5000007010FC08091080180958093080180E079
:10F5100090E0E0EDF7E03197F1F70196883C910536
:10F52000C1F78091C00087FFEDCF109208011DC088
:10F530008FEF80930A010FC080910B01809580931B
:10F540000B0180E090E0E0EDF7E03197F1F70196F4
:10F55000883C9105C1F78091C00087FFEDCF1092E4
:10F560000B0103C085E292EEEEC98091C00087FFD7
:10F57000FCCF8091C600EAC988E392EEE4C98CE131
:10F5800091EEE1C988249924933011F1943028F444
:10F59000913089F09230B8F408C0953061F195301F
:10F5A000F0F0963009F048C043C02B3109F042C951
:10F5B00091E06BE13FC96227C15DDE4F2883CF52E6
:10F5C000D14092E037C9B22FA0E0622793E032C960
:10F5D000822F90E0A82BB92B622794E02BC92E3004
:10F5E00009F039C3622795E0C05DDE4F19821882A9
:10F5F000C053D1401FC9E1E0F0E0EC0FFD1FC05D3A
:10F60000DE4F08811981C053D140E00FF11F2083E4
:10F610000F5F1F4FC05DDE4F19830883C053D14079
:10F6200062270A171B0709F005C9D80196E002C92D
:10F63000261709F010C303C0973009F0FBC87724E0
:10F640009981933109F412C19431C8F4963009F4C8
:10F65000D8C0973050F4923009F406C1933009F4C1
:10F660006DC0913009F059C253C0913109F477C08F
:10F67000923108F0BBC0903109F04FC2F5C098310B
:10F6800009F487C0993150F4953109F4EFC09531F0
:10F6900008F4C6C1963109F040C2C2C19A3109F4DA
:10F6A0006CC09A3108F491C09B3109F45BC09D3164
:10F6B00009F033C29D81903359F48F81882311F46E
:10F6C0009EE11CC0813011F091E018C098E916C08D
:10F6D000892F807591F0903539F4E0E0F0E089E011
:10F6E0008093570094910AC0983539F4E3E0F0E034
:10F6F00089E080935700949101C090E01A821B82A8
:10F700008D818C831D829E831F8227E030E009C299
:10F710001A8288E08B8381E48C8386E58D8382E581
:10F720008E8389E48F8383E5888780E589878FE5E9
:10F730008A8782E38B872BE030E0F3C18A818139AD
:10F7400041F0823941F0803911F48FE005C080E04A
:10F7500003C082E001C08AE01A828B8344C0772410
:10F76000739482C08D81882311F48EE12CC0813086
:10F7700011F081E028C088E926C01A82E1E0F0E0BB
:10F7800089E08093570084918B831C8224E030E0D1
:10F79000C8C18B81803589F48C81883039F4E2E0EE
:10F7A000F0E089E08093570084910DC0E0E0F0E044
:10F7B00089E080935700849106C0E3E0F0E089E09F
:10F7C0008093570084911A82DFCF8D81836C99E0FA
:10F7D000E1E0F0E0082E90935700E89507B600FCB2
:10F7E000FDCF1A821B8223E030E09BC180EC8A832C
:10F7F000CE5CDE4F188219821A821B82C253D1401E
:10F800008EC18A8190E0A0E0B0E0582F44273327D2
:10F8100022278B8190E0A0E0B0E0DC0199278827C7
:10F82000282B392B4A2B5B2B8D8190E0A0E0B0E098
:10F83000282B392B4A2B5B2B8C8190E0A0E0B0E089
:10F84000BA2FA92F982F8827282B392B4A2B5B2BCF
:10F85000220F331F441F551FC05EDE4F288339839C
:10F860004A835B83C052D1401A8259C13A81C95C34
:10F87000DE4F3883C753D140CA5CDE4F1882C6536F
:10F88000D1408B81C82EDD24CA5CDE4F488159816E
:10F89000C653D140C42AD52A933109F082C0CE5C28
:10F8A000DE4F88819981AA81BB81C253D1408050AB
:10F8B000904CA340B04030F583E0CE5CDE4FE88052
:10F8C000F9800A811B81C253D140F70100935B008C
:10F8D00080935700E89507B600FCFDCFCE5CDE4F65
:10F8E000088119812A813B81C253D14000501F4FAA
:10F8F0002F4F3F4FCE5CDE4F088319832A833B8313
:10F90000C253D140C05EDE4F488159816A817B81FC
:10F91000C052D140DE011B9631E08C9111962C91A2
:10F9200011971296C75CDE4F2883C953D140C85C3B
:10F93000DE4F1882C853D14090E0C85CDE4FE881AA
:10F94000F981C853D1408E2B9F2B0C01FA01609393
:10F950005B0030935700E89511244E5F5F4F6F4F67
:10F960007F4F0EEFE02E0FEFF02ECE0CDF1CC114F8
:10F97000D10499F685E0C05EDE4F088119812A81A5
:10F980003B81C052D140F80120935B008093570027
:10F99000E89507B600FCFDCF81E180935700E8951C
:10F9A00035C0C05EDE4F88819981AA81BB81C0527B
:10F9B000D140B695A795979587957C018601ABE0D8
:10F9C000AA2EB12CAC0EBD1E0BC0D5016D915D01F0
:10F9D000C7010F947FFE0894E11CF11C01501040F8
:10F9E0000115110591F7A60160E070E0440F551F65
:10F9F000661F771FC05EDE4FE880F9800A811B8199
:10FA0000C052D1404E0D5F1D601F711F1A82C05E33
:10FA1000DE4F488359836A837B83C052D1407FC0C5
:10FA2000FA80C55CDE4FF882CB53D140C65CDE4F16
:10FA30001882CA53D1408B81C82EDD24C65CDE4FAC
:10FA400008811981CA53D140C02AD12A1A828981DA
:10FA5000BE016D5F7F4F843121F59601C05EDE4FA0
:10FA6000E880F9800A811B81C052D1400BBFF701A9
:10FA700087919691DB018C9311969C936E5F7F4FDB
:10FA8000D801C7010296A11DB11DC05EDE4F88835B
:10FA90009983AA83BB83C052D14022503040F1F6F3
:10FAA00036C0C05EDE4F288139814A815B81C052F9
:10FAB000D1400894C108D108760100E010E0089414
:10FAC000C11CD11C0894E11CF11C011D111DE20E8A
:10FAD000F31E041F151F21BDBB27A52F942F832FB5
:10FAE00082BD2F5F3F4F4F4F5F4FF89A80B5DB01CC
:10FAF0008D93BD012E153F054007510761F7C05E8C
:10FB0000DE4F288339834A835B83C052D1409601FC
:10FB10002D5F3F4FFB01108204C080EC8A8322E0FE
:10FB200030E08BE18093C6008091C00086FFFCCF5F
:10FB30008091C00080648093C000C15DDE4FF88179
:10FB4000CF52D140F093C6008091C00086FFFCCF19
:10FB50008091C00080648093C000432F3093C60022
:10FB60008091C00086FFFCCF8091C00080648093AC
:10FB7000C000922F2093C6008091C00086FFFCCF6A
:10FB80008091C00080648093C0008EE08093C600A6
:10FB90008091C00086FFFCCF8091C000806480937C
:10FBA000C00065E1C15DDE4FE880CF52D1406E25D7
:10FBB00069276427FE01319610C090819093C6009A
:10FBC0008091C00086FFFCCF31968091C000806498
:10FBD0008093C0006927215030402115310569F715
:10FBE0006093C6008091C00086FFFCCF8091C0006A
:10FBF00080648093C00085B1805885B9772081F4F6
:10FC0000C15DDE4F0881CF52D1400F5FC15DDE4F35
:10FC10000883CF52D14090E0A0E0B0E00D941AF4F8
:10FC200027982F9880E090E020ED37E0F901319798
:10FC3000F1F7019684369105C9F700008091C00064
:10FC40008D7F8093C00081E180935700E895EE2777
:10FC5000FF270994FFCF90E00D941AF497FB092E2B
:10FC600007260AD077FD04D02ED006D000201AF443
:10FC7000709561957F4F0895F6F7909581959F4F08
:10FC80000895A1E21A2EAA1BBB1BFD010DC0AA1FDD
:10FC9000BB1FEE1FFF1FA217B307E407F50720F0F5
:10FCA000A21BB30BE40BF50B661F771F881F991F70
:10FCB0001A9469F760957095809590959B01AC01B9
:10FCC000BD01CF010895AA1BBB1B51E107C0AA1FAC
:10FCD000BB1FA617B70710F0A61BB70B881F991FED
:10FCE0005A95A9F780959095BC01CD010895F99991
:10FCF000FECF92BD81BDF89A992780B50895262F31
:10FD0000F999FECF1FBA92BD81BD20BD0FB6F89400
:0EFD1000FA9AF99A0FBE01960895F894FFCF63
:00000001FF
