:100000000C94F5000C9426010C9426010C94260106
:100010000C9426010C9426010C9426010C942601C4
:100020000C9426010C9426010C9426010C942601B4
:100030000C9426010C9426010C9426010C942601A4
:100040000C9426010C9426010C9426010C94260194
:100050000C9426010C9426010C9426010C94E709BB
:100060000C9426010C945B0A0C94310A0C94260122
:100070000C9426010C9426010C9426010C94260164
:100080000C9426010C9426010C9426010C94260154
:100090000C9426010C9426010C9426010C94260144
:1000A0000C9426010C9426010C9426010C94260134
:1000B0000C9426010C9426010C9426010C94260124
:1000C0000C9426010C9426010C9426010C94260114
:1000D0000C9426010C9426010C9426010C94260104
:1000E0000C94260105A84CCDB2D44EB93836A902DD
:1000F0000C50B9918688083CA6AAAA2ABE00000026
:10010000803F0C947A010C94AB010C94290C0C9454
:1001100030020C944D010C9489010C949D010C94B7
:10012000910A0C94E30100002200250028002B0016
:100130002E003100340002010000050108010B010E
:1001400000002100240027002A002D003000330089
:1001500001010000040107010A0105050505070565
:1001600008080808020202020A0A08080404040433
:10017000010101010101010103030303030303035F
:10018000040707070C0C0C0C0C0C0C0C02020202EE
:1001900006060606060606060B0B0B0B0B0B0B0BD7
:1001A0000102102020080810204010204080020189
:1001B000020108040201010204081020408080406E
:1001C000201008040201800402018040201008046D
:1001D000020108040201010204081020408001020B
:1001E000040810204080910A290C11241FBECFEF73
:1001F000D1E2DEBFCDBF00E00CBF12E0A0E0B2E074
:10020000E2E5F1E200E00BBF02C007900D92AA34D4
:10021000B107D9F727E0AAE4B2E001C01D92AF30E0
:10022000B207E1F710E0C4EFD0E000E006C021978C
:100230000109802FFE010E946A0FC33FD10780E0B1
:100240000807A9F70E94DA0A0C9497100C94000092
:100250003FB7F8948091590290915A02A0915B02A5
:10026000B0915C0226B5A89B05C02F3F19F00196FE
:10027000A11DB11D3FBFBA2FA92F982F8827BC0100
:10028000CD01620F711D811D911D42E0660F771F28
:10029000881F991F4A95D1F70895AF92BF92CF92C8
:1002A000DF92EF92FF920F931F93CF93DF936C0136
:1002B0007B018B01040F151FEB015E01AE18BF0817
:1002C000C017D10759F06991D601ED91FC910190C9
:1002D000F081E02DC6011995892B79F7C501DF91D1
:1002E000CF911F910F91FF90EF90DF90CF90BF9033
:1002F000AF900895FC01538D448D252F30E0842F5D
:1003000090E0821B930B541710F0CF96089501973D
:100310000895FC01918D828D981761F0A28DAE0F2A
:10032000BF2FB11D5D968C91928D9F5F9F73928FB1
:1003300090E008958FEF9FEF0895FC01918D828DDD
:10034000981731F0828DE80FF11D858D90E00895AA
:100350008FEF9FEF0895FC01918D228D892F90E002
:10036000805C9F4F821B91098F73992708958DE5BB
:1003700092E00E94AB0121E0892B09F420E0822F5A
:100380000895FC01A48DA80FB92FB11DA35ABF4F2A
:100390002C91848D90E001968F739927848FA68984
:1003A000B7892C93A089B1898C91837080648C93D8
:1003B000938D848D981306C00288F389E02D808187
:1003C0008F7D80830895EF92FF920F931F93CF93B9
:1003D000DF93EC0181E0888F9B8D8C8D98131AC080
:1003E000E889F989808185FF15C09FB7F894EE8967
:1003F000FF896083E889F9898081837080648083C4
:100400009FBF81E090E0DF91CF911F910F91FF900E
:10041000EF900895F62E0B8D10E00F5F1F4F0F73B6
:100420001127E02E8C8D8E110CC00FB607FCFACF71
:10043000E889F989808185FFF5CFCE010E94C1014D
:10044000F1CFEB8DEC0FFD2FF11DE35AFF4FF08242
:100450009FB7F8940B8FEA89FB8980818062CFCFA8
:10046000CF93DF93EC01888D8823B9F0AA89BB89EB
:10047000E889F9898C9185FD03C0808186FD0DC0D6
:100480000FB607FCF7CF8C9185FFF2CF808185FFF7
:10049000EDCFCE010E94C101E9CFDF91CF91089548
:1004A00080E090E0892B29F00E94B70181110E9421
:1004B000000080E090E0892B49F080E090E0892BFB
:1004C00029F00E94000081110E94000080E090E06D
:1004D000892B49F080E090E0892B29F00E940000F0
:1004E00081110E94000080E090E0892B49F080E0BB
:1004F00090E0892B29F00E94000081110C940000EB
:100500000895FC0101900020E9F73197AF01481BE5
:10051000590BBC018DE592E00C944D018F929F9296
:10052000AF92BF920F931F93CF93DF93CDB7DEB7F8
:10053000A1970FB6F894DEBF0FBECDBF19A242300F
:1005400008F44AE08E010F5D1F4F842E912CB12CD0
:10055000A12CA50194010E94480FE62FB901CA0100
:10056000EA30F4F4E05DD801EE938D01232B242BC7
:10057000252B79F790E080E0109719F0CD010E94CB
:100580008102A1960FB6F894DEBF0FBECDBFDF91FA
:10059000CF911F910F91BF90AF909F908F90089532
:1005A000E95CE1CFCF92DF92EF92FF92CF93DF939E
:1005B0006B017C016DE28DE592E00E94E301EC01AC
:1005C00066277727CB016C197D098E099F094AE0C0
:1005D0000E948E028C0F9D1FDF91CF91FF90EF90B4
:1005E000DF90CF9008952F923F924F925F926F923B
:1005F0007F928F929F92AF92BF92CF92DF92EF92B3
:10060000FF920F931F93CF93DF93CDB7DEB7C653FF
:10061000D8400FB6F894DEBF0FBECDBFFE013196B5
:1006200080E098E0DF019C011D9221503040E1F70D
:10063000C35FD74FF983E883CD50D84067E072E0BD
:10064000CF5ED74F79836883C151D840C35ED74FFF
:10065000F983E883CD51D8408AEF94E0C55DD74F48
:1006600099838883CB52D8402AEFE22E22E0F22EE3
:100670008C010E94280160934A0270934B02809380
:100680004C0290934D02CF5ED74FA881B981C151E2
:10069000D8408C91863308F0865320917B00982FA8
:1006A0009870277F922B90937B0020910002B0E4FA
:1006B0002B9F900111248770822B80937C00809166
:1006C0007A00806480937A0080917A0086FDFCCF66
:1006D0006091780070917900072E000C880B990BBF
:1006E0000E944C0DF80161937193819391938F0156
:1006F000D7011D921D921D921D927D010E9428011D
:10070000AB01BC0120914E0230914F0280914A0210
:1007100090914B02A0914C02B0914D02820F931F19
:10072000A11DB11D481759076A077B0738F3EAEF87
:10073000F6E0E017F10709F09CCF0091FD0610915B
:10074000FE062091FF0630910007CB5FD74F39831B
:100750002883C550D8406091070770910807CF5F84
:10076000D74F79836883C150D84036952795CD5FA0
:10077000D74F39832883C350D840CB5FD74F2880C9
:100780003980C550D840220C331C220C331C011573
:10079000110509F4F4C08091FA06882309F448C0D1
:1007A0008091090790910A07019709F041C0809153
:1007B000FB0681113DC06B01260E371EF12CE12C8A
:1007C000CD5FD74F88819981C350D8408E159F0542
:1007D00009F4B8C0D6012D913D914D915D916D0107
:1007E0005D01B4E0AB1AB108F801608171818281CA
:1007F00093810E94400ED5016D937D938D939C93C0
:100800001397F80121913191419151918F01D101BB
:100810009E918E917E916E911D010E94400EF1017C
:100820006083718382839383FFEFEF1AFF0AC8CF3F
:10083000CB5FD74F28813981C550D840B90190E0AE
:1008400080E00E944A0D20E030E040E85FE30E9433
:10085000320C4B015C016801CF5FD74FE880F98013
:10086000C150D8402E0C3F1C10E000E0CD5FD74FA8
:1008700068817981C350D8406017710709F457C067
:10088000B80190E080E00E944A0DA50194010E9409
:10089000A90C2BED3FE049EC50E40E94400E0E9471
:1008A000A40C2FE135E84BEE5EE30E94400E9B0165
:1008B000AC0161E77DE38AE09FE30E94320C2B01EB
:1008C0003C01D6014D925D926D927D926D01F701D2
:1008D00021913191419151917F01BF016450710982
:1008E000C95FD74F79836883C750D840B2010E944F
:1008F000400EC95FD74FA881B981C750D8406D93CA
:100900007D938D939C931397A3019201F101929192
:100910008291729162911F010E94400ED1016D93EC
:100920007D938D939C9313970F5F1F4F9FCFB1E0E3
:10093000B093FA061092FB06E1E0F0E0F0930A07AC
:10094000E0930907CB5FD74F28803980C550D84046
:10095000CA5DD74F1882C652D840369427942114C6
:10096000310409F477C0CA5DD74FF881C652D84028
:10097000FF5FCA5DD74FF883C652D840EECFCB5F3A
:10098000D74F28813981C550D840B90190E080E027
:100990000E944A0D20E030E040E85FE30E94320C04
:1009A0002B013C01CF5FD74FE880F980C150D84080
:1009B0002E0C3F1C10E000E0CD5FD74F688179819D
:1009C000C350D8406017710709F4BCCFB80190E05C
:1009D00080E00E944A0DA30192010E94A90C2BED18
:1009E0003FE049EC50E40E94400E0E94A40C2FE12D
:1009F00035E84BEE5EE30E94400E9B01AC0161E7DF
:100A00007DE38AE09FE30E94320C4B015C01D70139
:100A10002D913D914D915D917D016D01B4E0CB1A19
:100A2000D1080E94400EF601608371838283938314
:100A3000A5019401D1019E918E917E916E911D012F
:100A40000E94400EF10160837183828393830F5F64
:100A50001F4FB2CF2091050730910607C75DD74FD2
:100A600039832883C952D840CF5FD74F68817981B5
:100A7000C150D840C95DD74F79836883C752D840E9
:100A8000FB0130E020E090E080E0CB5FD74F488171
:100A90005981C550D8404150510924173507B0F548
:100AA00028173907F8F4DC01AA0FBB1FAA0FBB1FD8
:100AB000CF5FD74F68817981C150D840A60FB71F4B
:100AC000C080D180E280F3808D909D90AD90BC90ED
:100AD000139780829182A282B382CD92DD92ED92B1
:100AE000FC921397CD5FD74F68817981C350D8406E
:100AF0008617970728F0861B970B76956795F8CF92
:100B0000860F971F2F5F3F4F3496C7CFC15ED74FD9
:100B10001882CF51D84081E090E0C75FD74F9983CA
:100B20008883C950D840CE5DD74F188219821A8267
:100B30001B82C252D84060E070E080E89FEBCB5E41
:100B4000D74F688379838A839B83C551D840C15E20
:100B5000D74F7881CF51D840CA5DD74F8881C652D0
:100B6000D840781709F480C2C75FD74FA881B981F0
:100B7000C950D840AA0FBB1FC35DD74FB983A88304
:100B8000CD52D840C75FD74FE881F981C950D840CE
:100B900023E0EE0FFF1F2A95E1F7CF5CD74FF983D3
:100BA000E883C153D840C75FD74F28813981C950E6
:100BB000D840220F331F220F331FC15DD74F398317
:100BC0002883CF52D840CD5ED74F19821882C351A7
:100BD000D840C15FD74F19821882CF50D840412CDE
:100BE000512C3201C55FD74F1882CB50D840C45F1B
:100BF000D74F1882CC50D84010E80FE3C75FD74FCB
:100C000068817981C950D840CD5ED74F888199815C
:100C1000C351D8406817790709F4D5C1CF5FD74FC2
:100C2000A881B981C150D840C15FD74FE881F9810F
:100C3000CF50D840AE0FBF1FCD5FD74FB983A88329
:100C4000C350D840C75DD74F28813981C952D84099
:100C50002E0F3F1FC95FD74F39832883C750D84015
:100C6000C05ED74F99838883C052D840CB5FD74F9F
:100C700068817981C550D840C05ED74F88819981FD
:100C8000C052D8408617970708F020C1CD5FD74FD4
:100C9000A881B981C350D840C15DD74FE881F9819F
:100CA000CF52D840AE0FBF1FCB5CD74FB983A883BC
:100CB000C553D8408D909D90AD90BC90C95FD74FE3
:100CC00028813981C750D8402E0F3F1FCD5CD74FA8
:100CD00039832883C353D840D9016D917D918D917B
:100CE0009C91C75ED74F688379838A839B83C95160
:100CF000D840C55FD74F2881CB50D840C45FD74F6D
:100D00003881CC50D840412F502FC501B4010E94EA
:100D1000400E6B017C01A3019201C75ED74F688131
:100D200079818A819B81C951D8400E94400E9B01E4
:100D3000AC01C701B6010E94320C6B017C01C75E99
:100D4000D74F288139814A815B81C951D840C55F1D
:100D5000D74F6881CB50D840C45FD74F7881CC50F3
:100D6000D840812F902F0E94400EC75ED74F6883D6
:100D700079838A839B83C951D840A3019201C5011D
:100D8000B4010E94400E9B01AC01C75ED74F688141
:100D900079818A819B81C951D8400E94330C4B01D3
:100DA0005C01A7019601CD5FD74FE881F981C3505F
:100DB000D84060817181828193810E94320CCB5C2A
:100DC000D74FA881B981C553D8406D937D938D933A
:100DD0009C931397A5019401C95FD74FE881F981CE
:100DE000C750D84060817181828193810E94320C0A
:100DF000CD5CD74FA881B981C353D8406D937D9303
:100E00008D939C931397A7019601CD5FD74FE881EF
:100E1000F981C350D84060817181828193810E94A1
:100E2000330CCD5FD74FA881B981C350D8406D93A3
:100E30007D938D939C931397A5019401C95FD74F20
:100E4000E881F981C750D8406081718182819381A6
:100E50000E94330CC95FD74FA881B981C750D840D1
:100E60006D937D938D939C931397C05ED74FE881CC
:100E7000F981C052D840C35DD74F28813981CD5206
:100E8000D840E20FF31FC05ED74FF983E883C0520A
:100E9000D840CD5FD74F68817981C350D840CF5CAF
:100EA000D74F88819981C153D840680F791FCD5F92
:100EB000D74F79836883C350D840A80FB91FC95F43
:100EC000D74FB983A883C750D840D0CECB5ED74F79
:100ED000288139814A815B81C551D840C55FD74F90
:100EE0006881CB50D840C45FD74F7881CC50D84070
:100EF000812F902F0E94400E6B017C01CE5DD74F59
:100F0000288139814A815B81C252D840C301B20134
:100F10000E94400E9B01AC01C701B6010E94320C39
:100F20006B017C01CB5ED74F288139814A815B817F
:100F3000C551D840C301B2010E94400E4B015C0173
:100F4000CE5DD74F288139814A815B81C252D8401A
:100F5000C55FD74F6881CB50D840C45FD74F7881E9
:100F6000CC50D840812F902F0E94400EA5019401B3
:100F70000E94330C2B013C01CD5ED74FA881B98173
:100F8000C351D8401196CD5ED74FB983A883C351C2
:100F9000D840C15FD74FE881F981CF50D84034960F
:100FA000C15FD74FF983E883CF50D840C55FD74F93
:100FB000C882CB50D840C45FD74FD882CC50D840DD
:100FC0001E2D0F2D1BCE20E030E040E05FE3CB5E16
:100FD000D74F688179818A819B81C551D8400E9411
:100FE000400E4B015C01AC019B0160E070E080E0D1
:100FF0009FE30E94320C0E94B30E6B017C0120E043
:1010000030E040E05FE3C501B4010E94330C0E9470
:10101000B30ECB5ED74F688379838A839B83C55198
:10102000D840C701B6019058CE5DD74F6883798309
:101030008A839B83C252D840C15ED74F7881CF51FB
:10104000D8407F5FC15ED74F7883CF51D840C35D12
:10105000D74F88819981CD52D840C75FD74F9983A8
:101060008883C950D84073CDCF5FD74FA881B9814D
:10107000C150D8401D921D921D921C921397C75DBE
:10108000D74F08811981C952D840CB5FD74FE8812B
:10109000F981C550D840E215F305C9F1C95DD74FB4
:1010A000A881B981C752D8406D917D918D919D9154
:1010B000C95DD74FB983A883C752D840F801C19002
:1010C000D190E190F1908F019B01AC010E94400E04
:1010D0004B015C01A7019601C701B6010E94400EB9
:1010E0009B01AC01C501B4010E94330C0E94B30EF8
:1010F000C95DD74FE881F981C752D84034976083E2
:10110000718382839383FFEF2F1A3F0ABECF90E053
:1011100080E0C55DD74FA881B981CB52D8404D91B1
:101120005D916D917D91C55DD74FB983A883CB52F9
:10113000D840C35ED74FE881F981CD51D840E80F40
:10114000F91F408351836283738304968115B1E054
:101150009B07F9F6C35ED74FE881F981CD51D8409E
:10116000F395C35ED74FF983E883CD51D840CF5E66
:10117000D74F28813981C151D8402E5F3F4FCF5E74
:10118000D74F39832883C151D84067E172E0621795
:10119000730709F061CA10E000E09801220F232FC5
:1011A000221F330BB901032E000C880B990B37FF5C
:1011B00078C00E94D20289E292E00E948102C35F5D
:1011C000D74F28803980CD50D840812C912C5401A4
:1011D0008FE292E00E9481024AE0C501B4010E94C0
:1011E0008E028CE292E00E948102D101CD90DD90CE
:1011F000ED90FC90A7019601C701B6010E94F30E85
:10120000882309F452C087E392E00E9481028DE2B4
:1012100092E00E948102BFEF8B1A9B0AAB0ABB0AC5
:101220003394F8E08F169104A104B10489F683E4A5
:1012300092E00E948102005F184DC35FD74F288162
:101240003981CD50D8402C5F3F4FC35FD74F398392
:101250002883CD50D840011534EC130709F09DCFF9
:1012600086E492E00E94810283E492E0CA5CD74F58
:101270000FB6F894DEBF0FBECDBFDF91CF911F91A7
:101280000F91FF90EF90DF90CF90BF90AF909F9025
:101290008F907F906F905F904F903F902F900C9425
:1012A00081024AE00E948E0286CF26013701E8942F
:1012B00077F82FEF3FEF4FE75FE7C301B2010E94DE
:1012C000F30E81110DC02FEF3FEF4FE75FE7C30132
:1012D000B2010E949F0C18161CF48BE392E095CF8C
:1012E0002FEF3FEF4FE75FE4C701B6010E943B0ECF
:1012F00018161CF48FE392E088CF2FEF3FEF4FE7F3
:101300005FECC701B6010E949F0C87FDF3CF20E080
:1013100030E0A901C701B6010E949F0C87FF09C0F8
:101320006DE28DE592E00E94E301F7FAF094F7F8A0
:10133000F0942AE037ED43EA5BE3C701B6010E946F
:10134000330C2B013C010E941B0D6B017C010E94A0
:101350004A0D9B01AC01C301B2010E94320C2B016A
:101360003C014AE0C701B6010E948E026EE28DE5A3
:1013700092E00E94E30120E030E040E251E4C3014A
:10138000B2010E94400E2B013C010E941B0D6B011B
:10139000F12CE12C4AE0C701B6010E948E02C70180
:1013A000B6010E944A0D9B01AC01C301B2010E942B
:1013B000320C20E030E040E251E40E94400E0E94F6
:1013C0001B0D90E080E04AE00E948E0220CF1F9229
:1013D0000F920FB60F9211242F933F938F939F93E9
:1013E000AF93BF938091550290915602A0915702FE
:1013F000B09158023091540223E0230F2D3758F555
:101400000196A11DB11D2093540280935502909323
:101410005602A0935702B0935802809159029091BE
:101420005A02A0915B02B0915C020196A11DB11D10
:101430008093590290935A02A0935B02B0935C028E
:10144000BF91AF919F918F913F912F910F900FBEC0
:101450000F901F90189526E8230F0296A11DB11D2D
:10146000D2CF1F920F920FB60F9211240BB60F928C
:101470002F933F934F935F936F937F938F939F939C
:10148000AF93BF93EF93FF938DE592E00E94C1016C
:10149000FF91EF91BF91AF919F918F917F916F914C
:1014A0005F914F913F912F910F900BBE0F900FBE08
:1014B0000F901F9018951F920F920FB60F92112444
:1014C0000BB60F922F938F939F93EF93FF93E0911F
:1014D0006D02F0916E028081E0917302F0917402CE
:1014E00082FD1DC09081809176028F5F8F73209165
:1014F0007702821741F0E0917602F0E0E35AFD4F67
:10150000958F80937602FF91EF919F918F912F910C
:101510000F900BBE0F900FBE0F901F9018958081FB
:10152000F2CFEDE5F2E01382128288EE93E0A0E0C4
:10153000B0E084839583A683B7838BE192E09183A7
:10154000808385EC90E09587848784EC90E0978792
:10155000868780EC90E0918B808B81EC90E0938B80
:10156000828B82EC90E0958B848B86EC90E0978B5D
:10157000868B118E128E138E148EEAEFF6E0108297
:1015800011821482138280E890E09683858380E044
:1015900090E4ACE1B6E487839087A187B2878AEFB5
:1015A00092E0948783878AEF94E09687858787E027
:1015B00082830895789484B5826084BD84B5816007
:1015C00084BD85B5826085BD85B5816085BD80910E
:1015D0006E00816080936E00109281008091810086
:1015E000826080938100809181008160809381007E
:1015F000809180008160809380008091B100846040
:101600008093B1008091B00081608093B0008091A0
:10161000910082608093910080919100816080931D
:101620009100809190008160809390008091A10052
:1016300082608093A1008091A10081608093A100CD
:101640008091A00081608093A00080912101826040
:1016500080932101809121018160809321018091FB
:10166000200181608093200180917A0084608093C2
:101670007A0080917A00826080937A0080917A006B
:10168000816080937A0080917A00806880937A00EC
:101690001092C10080917A00846080937A008091DA
:1016A0007A008D7F80937A0080917A008E7F80937C
:1016B0007A00E0916D02F0916E0292E09083E091E9
:1016C0006902F0916A021082E0916B02F0916C0263
:1016D00080E1808310927502E0917102F0917202B4
:1016E00086E08083E0916F02F091700280818061DA
:1016F0008083E0916F02F091700280818860808326
:10170000E0916F02F0917002808180688083E091A7
:101710006F02F091700280818F7D80839093000230
:10172000E9EAF1E02491E3E6F1E08491882399F07D
:1017300090E0880F991FFC01E05CFE4FA591B491E9
:10174000FC01EA5DFE4F859194918FB7F894EC917E
:10175000E22BEC938FBFEAEAF1E02491E4E6F1E0BA
:1017600084918823C1F090E0880F991FFC01E05C10
:10177000FE4FC591D491FC01EA5DFE4FA591B49155
:101780009FB7F8948881E22FE0958E2388838C910F
:10179000E823EC939FBF84E690E090934F02809300
:1017A0004E022FB7F8948091550290915602A09165
:1017B0005702B09158022FBF4091500250915102F0
:1017C0006091520270915302841B950BA60BB70BCC
:1017D000803D9740A105B105A8F00E94F3022FB704
:1017E000F8948091550290915602A0915702B091C1
:1017F00058022FBF8093500290935102A09352023F
:10180000B09353020E9428014B015C0182E3C82E71
:10181000D12CE12CF12C0E942801681979098A0940
:101820009B09683E734081059105A8F381E0C81AC1
:10183000D108E108F10828EE820E23E0921EA11CD7
:10184000B11CC114D104E104F10429F70E94500233
:10185000A8CF8091FD069091FE06009711F00C94A0
:101860000E1008955058BB27AA270E944A0C0C94CA
:10187000ED0D0E94B40D38F00E94BB0D20F039F43C
:101880009F3F19F426F40C94B10D0EF4E095E7FB9C
:101890000C94AB0DE92F0E94120E58F3BA17620791
:1018A00073078407950720F079F4A6F50C94340E9D
:1018B0000EF4E0950B2EBA2FA02D0B01B90190016B
:1018C0000C01CA01A0011124FF27591B99F0593FAF
:1018D00050F4503E68F11A16F040A22F232F342FF7
:1018E0004427585FF3CF469537952795A795F04045
:1018F0005395C9F77EF41F16BA0B620B730B840B5A
:10190000BAF09150A1F0FF0FBB1F661F771F881F11
:10191000C2F70EC0BA0F621F731F841F48F4879569
:1019200077956795B795F7959E3F08F0B0CF93955B
:10193000880F08F09927EE0F9795879508950E94D4
:10194000870D08F481E008950E94C40DE3950C947E
:10195000FE0D0E94BD0C0C94ED0D0E94BB0D58F0C5
:101960000E94B40D40F029F45F3F29F00C94AB0DB8
:1019700051110C94350E0C94B10D0E94120E68F3A7
:101980009923B1F3552391F3951B550BBB27AA2738
:1019900062177307840738F09F5F5F4F220F331F72
:1019A000441FAA1FA9F335D00E2E3AF0E0E832D03A
:1019B00091505040E695001CCAF72BD0FE2F29D03D
:1019C000660F771F881FBB1F261737074807AB070F
:1019D000B0E809F0BB0B802DBF01FF2793585F4F84
:1019E0003AF09E3F510578F00C94AB0D0C94350EF7
:1019F0005F3FE4F3983ED4F3869577956795B79566
:101A0000F7959F5FC9F7880F911D9695879597F970
:101A10000895E1E0660F771F881FBB1F62177307E9
:101A20008407BA0720F0621B730B840BBA0BEE1FFE
:101A300088F7E09508950E941A0E88F09F5798F055
:101A4000B92F9927B751B0F0E1F0660F771F881FC3
:101A5000991F1AF0BA95C9F714C0B13091F00E94DD
:101A6000340EB1E008950C94340E672F782F882738
:101A7000B85F39F0B93FCCF3869577956795B39504
:101A8000D9F73EF490958095709561957F4F8F4F73
:101A90009F4F0895E89409C097FB3EF49095809578
:101AA000709561957F4F8F4F9F4F9923A9F0F92F24
:101AB00096E9BB279395F695879577956795B795A2
:101AC000F111F8CFFAF4BB0F11F460FF1BC06F5F88
:101AD0007F4F8F4F9F4F16C0882311F096E911C09A
:101AE000772321F09EE8872F762F05C0662371F0BB
:101AF00096E8862F70E060E02AF09A95660F771FCF
:101B0000881FDAF7880F9695879597F90895990FAA
:101B10000008550FAA0BE0E8FEEF16161706E807B7
:101B2000F907C0F012161306E407F50798F0621BD8
:101B3000730B840B950B39F40A2661F0232B242BAD
:101B4000252B21F408950A2609F4A140A6958FEFCC
:101B5000811D811D089597F99F6780E870E060E01E
:101B600008959FEF80EC089500240A941616170636
:101B700018060906089500240A941216130614067E
:101B8000050608950C94B10D0E941A0ED8F3E8943E
:101B9000E0E0BB279F57F0F02AED3FE049EC06C09C
:101BA000EE0FBB0F661F771F881F28F0B23A62073F
:101BB0007307840728F0B25A620B730B840BE3950A
:101BC0009A9572F7803830F49A95BB0F661F771F8D
:101BD000881FD2F790480C94FA0E092E0394000C3B
:101BE00011F4882352F0BB0F40F4BF2B11F460FFB7
:101BF00004C06F5F7F4F8F4F9F4F0895EF93E0FFBB
:101C000007C0A2EA2AED3FE049EC5FEB0E944A0CD4
:101C10000E94ED0D0F90039401FC9058E4EEF0E06B
:101C20000C940D0F57FD9058440F551F59F05F3F0E
:101C300071F04795880F97FB991F61F09F3F79F0EE
:101C400087950895121613061406551FF2CF469570
:101C5000F1DF08C0161617061806991FF1CF8695F2
:101C60007105610508940895E894BB2766277727D6
:101C7000CB0197F908950E94870D08F48FEF08951E
:101C80000E94530E0C94ED0D0E94B40D38F00E948A
:101C9000BB0D20F0952311F00C94AB0D0C94B10DFD
:101CA00011240C94350E0E94120E70F3959FC1F30F
:101CB000950F50E0551F629FF001729FBB27F00DFA
:101CC000B11D639FAA27F00DB11DAA1F649F66274F
:101CD000B00DA11D661F829F2227B00DA11D621F9E
:101CE000739FB00DA11D621F839FA00D611D221F58
:101CF000749F3327A00D611D231F849F600D211D3C
:101D0000822F762F6A2F11249F5750409AF0F1F0BE
:101D100088234AF0EE0FFF1FBB1F661F771F881F27
:101D200091505040A9F79E3F510580F00C94AB0DA7
:101D30000C94350E5F3FE4F3983ED4F38695779587
:101D40006795B795F795E7959F5FC1F7FE2B880FCD
:101D5000911D9695879597F9089519F416F40C94AA
:101D6000B10D0C94F80E0E941A0EB8F39923C9F322
:101D7000B6F39F57550B87FF0E94060F0024A0E67D
:101D800040EA900180585695979528F4805C660F3C
:101D9000771F881F20F026173707480730F4621B8B
:101DA000730B840B202931294A2BA695179407948D
:101DB000202531254A2758F7660F771F881F20F006
:101DC00026173707480730F4620B730B840B200D7E
:101DD000311D411DA09581F7B901842F9158880FBD
:101DE0009695879508950E94870D880B990B089505
:101DF0009F3F31F0915020F4879577956795B7957F
:101E0000880F911D9695879597F9089591505040A8
:101E1000660F771F881FD2F708959F938F937F9344
:101E20006F93FF93EF939B01AC010E94400EEF91E3
:101E3000FF910E94210F2F913F914F915F910C9440
:101E4000400EDF93CF931F930F93FF92EF92DF9299
:101E50007B018C01689406C0DA2EEF010E94530EBC
:101E6000FE01E894A5912591359145915591A6F3F0
:101E7000EF010E944A0CFE019701A801DA9469F76C
:101E8000DF90EF90FF900F911F91CF91DF91089518
:101E9000A1E21A2EAA1BBB1BFD010DC0AA1FBB1F6E
:101EA000EE1FFF1FA217B307E407F50720F0A21BE0
:101EB000B30BE40BF50B661F771F881F991F1A944D
:101EC00069F760957095809590959B01AC01BD0177
:101ED000CF010895EE0FFF1F881F8BBF0790F6916B
:101EE000E02D19940F931F93CF93DF9382309105C8
:101EF00010F482E090E0E0910D07F0910E0730E0E1
:101F000020E0B0E0A0E0309799F42115310509F404
:101F10004AC0281B390B24303105D8F58A819B81B2
:101F20006115710589F1FB0193838283FE0111C064
:101F3000408151810281138148175907E0F0481709
:101F4000590799F4109761F012960C931297139613
:101F50001C933296CF01DF91CF911F910F9108957D
:101F600000930D0710930E07F4CF2115310551F0A2
:101F70004217530738F0A901DB019A01BD01DF01C7
:101F8000F801C1CFEF01F9CF90930E0780930D07B1
:101F9000CDCFFE01E20FF31F8193919322503109BF
:101FA00039832883D7CF20910B0730910C07232B3F
:101FB00041F4209103023091040230930C072093E6
:101FC0000B0720910102309102022115310541F4E5
:101FD0002DB73EB74091050250910602241B350BE8
:101FE000E0910B07F0910C07E217F307A0F42E1B0A
:101FF0003F0B2817390778F0AC014E5F5F4F24176D
:10200000350748F04E0F5F1F50930C0740930B07A6
:10201000819391939FCFF0E0E0E09CCFCF93DF934B
:102020000097E9F0FC01329713821282A0910D070C
:10203000B0910E07ED0130E020E01097A1F420816F
:102040003181820F931F20910B0730910C072817C5
:10205000390709F061C0F0930C07E0930B07DF919B
:10206000CF910895EA01CE17DF07E8F54A815B8139
:102070009E0141155105B1F7E901FB83EA834991BE
:102080005991C40FD51FEC17FD0761F48081918130
:102090000296840F951FE901998388838281938139
:1020A0009B838A83F0E0E0E012968D919C911397D8
:1020B0000097B9F52D913C911197CD010296820FB1
:1020C000931F20910B0730910C072817390739F619
:1020D000309751F510920E0710920D07B0930C0730
:1020E000A0930B07BCCFD383C28340815181840F5F
:1020F000951FC817D90761F44E5F5F4F888199819A
:10210000480F591F518340838A819B819383828327
:102110002115310509F0B0CFF0930E07E0930D07BC
:102120009ECFFD01DC01C0CF13821282D7CF10E019
:10213000C4EFD0E000E006C0802FFE010E946A0FCD
:102140002196011DC53FD10780E00807A9F7F89443
:02215000FFCFBF
:102152000100000F07800036003700380039003ACE
:10216200003B003C003D0000000000E3014D017A0D
:10217200013002AB0189019D0120487A3A200053C7
:10218200656E736F7220006E616E00696E66006F1D
:0A2192007666000D0A002D2D2D00C9
:00000001FF
